{
  "_format": "hh3-artifact-1",
  "contractName": "UniswapV2Router02Minimal",
  "sourceName": "contracts/UniswapV2Router02.sol",
  "abi": [
    {
      "inputs": [
        {
          "internalType": "address",
          "name": "_factory",
          "type": "address"
        },
        {
          "internalType": "address",
          "name": "_WETH",
          "type": "address"
        }
      ],
      "stateMutability": "nonpayable",
      "type": "constructor"
    },
    {
      "inputs": [],
      "name": "WETH",
      "outputs": [
        {
          "internalType": "address",
          "name": "",
          "type": "address"
        }
      ],
      "stateMutability": "view",
      "type": "function"
    },
    {
      "inputs": [
        {
          "internalType": "address",
          "name": "tokenA",
          "type": "address"
        },
        {
          "internalType": "address",
          "name": "tokenB",
          "type": "address"
        },
        {
          "internalType": "uint256",
          "name": "amountADesired",
          "type": "uint256"
        },
        {
          "internalType": "uint256",
          "name": "amountBDesired",
          "type": "uint256"
        },
        {
          "internalType": "uint256",
          "name": "amountAMin",
          "type": "uint256"
        },
        {
          "internalType": "uint256",
          "name": "amountBMin",
          "type": "uint256"
        },
        {
          "internalType": "address",
          "name": "to",
          "type": "address"
        },
        {
          "internalType": "uint256",
          "name": "deadline",
          "type": "uint256"
        }
      ],
      "name": "addLiquidity",
      "outputs": [
        {
          "internalType": "uint256",
          "name": "amountA",
          "type": "uint256"
        },
        {
          "internalType": "uint256",
          "name": "amountB",
          "type": "uint256"
        },
        {
          "internalType": "uint256",
          "name": "liquidity",
          "type": "uint256"
        }
      ],
      "stateMutability": "nonpayable",
      "type": "function"
    },
    {
      "inputs": [],
      "name": "factory",
      "outputs": [
        {
          "internalType": "address",
          "name": "",
          "type": "address"
        }
      ],
      "stateMutability": "view",
      "type": "function"
    },
    {
      "stateMutability": "payable",
      "type": "receive"
    }
  ],
  "bytecode": "0x60c060405234801561000f575f5ffd5b50604051610b42380380610b42833981810160405281019061003191906100fe565b8173ffffffffffffffffffffffffffffffffffffffff1660808173ffffffffffffffffffffffffffffffffffffffff16815250508073ffffffffffffffffffffffffffffffffffffffff1660a08173ffffffffffffffffffffffffffffffffffffffff1681525050505061013c565b5f5ffd5b5f73ffffffffffffffffffffffffffffffffffffffff82169050919050565b5f6100cd826100a4565b9050919050565b6100dd816100c3565b81146100e7575f5ffd5b50565b5f815190506100f8816100d4565b92915050565b5f5f60408385031215610114576101136100a0565b5b5f610121858286016100ea565b9250506020610132858286016100ea565b9150509250929050565b60805160a0516109d16101715f395f8181603e015261013201525f8181610156015281816101c1015261029001526109d15ff3fe608060405260043610610037575f3560e01c8063ad5c46481461009e578063c45a0155146100c8578063e8e33700146100f25761009a565b3661009a577f000000000000000000000000000000000000000000000000000000000000000073ffffffffffffffffffffffffffffffffffffffff163373ffffffffffffffffffffffffffffffffffffffff16146100985761009761053e565b5b005b5f5ffd5b3480156100a9575f5ffd5b506100b2610130565b6040516100bf91906105aa565b60405180910390f35b3480156100d3575f5ffd5b506100dc610154565b6040516100e991906105aa565b60405180910390f35b3480156100fd575f5ffd5b5061011860048036038101906101139190610624565b610178565b604051610127939291906106e4565b60405180910390f35b7f000000000000000000000000000000000000000000000000000000000000000081565b7f000000000000000000000000000000000000000000000000000000000000000081565b5f5f5f834211156101be576040517f08c379a00000000000000000000000000000000000000000000000000000000081526004016101b590610773565b60405180910390fd5b5f7f000000000000000000000000000000000000000000000000000000000000000073ffffffffffffffffffffffffffffffffffffffff1663e6a439058d8d6040518363ffffffff1660e01b815260040161021a929190610791565b602060405180830381865afa158015610235573d5f5f3e3d5ffd5b505050506040513d601f19601f8201168201806040525081019061025991906107cc565b90505f73ffffffffffffffffffffffffffffffffffffffff168173ffffffffffffffffffffffffffffffffffffffff160361032c577f000000000000000000000000000000000000000000000000000000000000000073ffffffffffffffffffffffffffffffffffffffff1663c9c653968d8d6040518363ffffffff1660e01b81526004016102e9929190610791565b6020604051808303815f875af1158015610305573d5f5f3e3d5ffd5b505050506040513d601f19601f8201168201806040525081019061032991906107cc565b90505b89935088925087841015610375576040517f08c379a000000000000000000000000000000000000000000000000000000000815260040161036c90610841565b60405180910390fd5b868310156103b8576040517f08c379a00000000000000000000000000000000000000000000000000000000081526004016103af906108a9565b60405180910390fd5b8b73ffffffffffffffffffffffffffffffffffffffff166323b872dd3383876040518463ffffffff1660e01b81526004016103f5939291906108c7565b6020604051808303815f875af1158015610411573d5f5f3e3d5ffd5b505050506040513d601f19601f820116820180604052508101906104359190610931565b508a73ffffffffffffffffffffffffffffffffffffffff166323b872dd3383866040518463ffffffff1660e01b8152600401610473939291906108c7565b6020604051808303815f875af115801561048f573d5f5f3e3d5ffd5b505050506040513d601f19601f820116820180604052508101906104b39190610931565b508073ffffffffffffffffffffffffffffffffffffffff16636a627842876040518263ffffffff1660e01b81526004016104ed91906105aa565b6020604051808303815f875af1158015610509573d5f5f3e3d5ffd5b505050506040513d601f19601f8201168201806040525081019061052d9190610970565b915050985098509895505050505050565b7f4e487b71000000000000000000000000000000000000000000000000000000005f52600160045260245ffd5b5f73ffffffffffffffffffffffffffffffffffffffff82169050919050565b5f6105948261056b565b9050919050565b6105a48161058a565b82525050565b5f6020820190506105bd5f83018461059b565b92915050565b5f5ffd5b6105d08161058a565b81146105da575f5ffd5b50565b5f813590506105eb816105c7565b92915050565b5f819050919050565b610603816105f1565b811461060d575f5ffd5b50565b5f8135905061061e816105fa565b92915050565b5f5f5f5f5f5f5f5f610100898b031215610641576106406105c3565b5b5f61064e8b828c016105dd565b985050602061065f8b828c016105dd565b97505060406106708b828c01610610565b96505060606106818b828c01610610565b95505060806106928b828c01610610565b94505060a06106a38b828c01610610565b93505060c06106b48b828c016105dd565b92505060e06106c58b828c01610610565b9150509295985092959890939650565b6106de816105f1565b82525050565b5f6060820190506106f75f8301866106d5565b61070460208301856106d5565b61071160408301846106d5565b949350505050565b5f82825260208201905092915050565b7f45585049524544000000000000000000000000000000000000000000000000005f82015250565b5f61075d600783610719565b915061076882610729565b602082019050919050565b5f6020820190508181035f83015261078a81610751565b9050919050565b5f6040820190506107a45f83018561059b565b6107b1602083018461059b565b9392505050565b5f815190506107c6816105c7565b92915050565b5f602082840312156107e1576107e06105c3565b5b5f6107ee848285016107b8565b91505092915050565b7f494e53554646494349454e545f410000000000000000000000000000000000005f82015250565b5f61082b600e83610719565b9150610836826107f7565b602082019050919050565b5f6020820190508181035f8301526108588161081f565b9050919050565b7f494e53554646494349454e545f420000000000000000000000000000000000005f82015250565b5f610893600e83610719565b915061089e8261085f565b602082019050919050565b5f6020820190508181035f8301526108c081610887565b9050919050565b5f6060820190506108da5f83018661059b565b6108e7602083018561059b565b6108f460408301846106d5565b949350505050565b5f8115159050919050565b610910816108fc565b811461091a575f5ffd5b50565b5f8151905061092b81610907565b92915050565b5f60208284031215610946576109456105c3565b5b5f6109538482850161091d565b91505092915050565b5f8151905061096a816105fa565b92915050565b5f60208284031215610985576109846105c3565b5b5f6109928482850161095c565b9150509291505056fea2646970667358221220ae9bc92df0cb80aa8f8831a6b896341fbb929bbaa1a30dbf4ab29c98b4750f3864736f6c634300081c0033",
  "linkReferences": {},
  "deployedLinkReferences": {},
  "immutableReferences": {
    "612": [
      {
        "length": 32,
        "start": 342
      },
      {
        "length": 32,
        "start": 449
      },
      {
        "length": 32,
        "start": 656
      }
    ],
    "614": [
      {
        "length": 32,
        "start": 62
      },
      {
        "length": 32,
        "start": 306
      }
    ]
  },
  "inputSourceName": "project/contracts/UniswapV2Router02.sol",
  "buildInfoId": "solc-0_8_28-19fe3ac7e3a4cd502feab78ce9d03704d0da8c4d"
}